:100000000C9462000C948A000C948A000C948A0070
:100010000C948A000C948A000C948A000C948A0038
:100020000C948A000C948A000C948A000C94690445
:100030000C948A000C948A000C948A000C948A0018
:100040000C94C7030C948A000C9437040C9411048C
:100050000C948A000C948A000C948A000C948A00F8
:100060000C948A000C948A000000000023002600F3
:10007000290000000000240027002A0000000000E2
:10008000250028002B0004040404040404040202D4
:100090000202020203030303030301020408102007
:1000A0004080010204081020010204081020000012
:1000B0000008000201000003040700000000000027
:1000C0000000250511241FBECFEFD8E0DEBFCDBF55
:1000D00011E0A0E0B1E0E4E7FFE002C005900D927E
:1000E000A034B107D9F722E0A0E4B1E001C01D922D
:1000F000AF30B207E1F710E0C2E6D0E004C02197CC
:10010000FE010E94B207C136D107C9F70E948205DD
:100110000C94B8070C9400008F929F92AF92BF92FC
:10012000FF920F931F93CF93DF93F0900C022BE07D
:100130002F1508F44CC020910E0208E512E0021BB6
:10014000110927FD1395000F111F000F111F20919A
:100150000D02C8E8D0E0C21BD10927FDD395CC0F12
:10016000DD1FCC0FDD1F4E010D2E000CAA08BB08B1
:100170009801012E000C440B550B281939094A0926
:100180005B09DC010E946D0724EB30E040E050E0A9
:100190000E944307820E931EA41EB51E8C169D0658
:1001A0002CF0E801801691060CF4E4012297CC0FA4
:1001B000DD1F2FB7F8948F2D90E0FC01EE0FFF1F8D
:1001C000E80FF91FE951FE4FD283C1832FBFDF91A2
:1001D000CF911F910F91FF90BF90AF909F908F9004
:1001E0000895833081F028F4813099F08230A9F0AD
:1001F00008958730A9F08830C9F08430B1F4809137
:1002000080008F7D03C0809180008F778093800075
:10021000089584B58F7784BD089584B58F7DFBCF15
:100220008091B0008F778093B00008958091B000E6
:100230008F7DF9CF1F93CF93DF93282F30E0F90103
:10024000E255FF4F8491F901E656FF4FD491F90131
:10025000EA57FF4FC491CC23A9F0162F81110E94B9
:10026000F100EC2FF0E0EE0FFF1FE458FF4FA591D7
:10027000B4918FB7F894EC91111108C0D095DE239A
:10028000DC938FBFDF91CF911F910895DE2BF8CFC4
:10029000CF93DF9390E0FC01E656FF4F24918A57FD
:1002A0009F4FFC0184918823D1F090E0880F991F23
:1002B000FC01EE58FF4FA591B491FC01E458FF4FAB
:1002C000C591D49161110EC09FB7F8948C91E22F23
:1002D000E0958E238C932881E223E8839FBFDF91F2
:1002E000CF9108958FB7F894EC91E22BEC938FBFE8
:1002F000F6CF8E50806480937C0080917A00806479
:1003000080937A0080917A0086FDFCCF80917800FE
:100310009091790008953FB7F894809146019091AB
:100320004701A0914801B091490126B5A89B05C09D
:100330002F3F19F00196A11DB11D3FBFBA2FA92F64
:10034000982F8827BC01CD01620F711D811D911D61
:1003500042E0660F771F881F991F4A95D1F70895CD
:100360008F929F92AF92BF92CF92DF92EF92FF92C5
:100370004B015C010E948B016B017C010E948B018F
:100380006C197D098E099F09683E734081059105AE
:10039000A8F321E0821A9108A108B10888EEC80EDE
:1003A00083E0D81EE11CF11C81149104A104B10466
:1003B00029F7FF90EF90DF90CF90BF90AF909F9084
:1003C0008F900895AF92BF92CF92DF92EF92FF92FB
:1003D0000F931F93CF93DF936C017B018B01040F6D
:1003E000151FEB015E01AE18BF08C017D10759F009
:1003F0006991D601ED91FC910190F081E02DC6014B
:100400000995892B79F7C501DF91CF911F910F9144
:10041000FF90EF90DF90CF90BF90AF900895FC01D8
:10042000538D448D252F30E0842F90E0821B930B59
:10043000541710F0CF96089501970895FC01918DFF
:10044000828D981761F0A28DAE0FBF2FB11D5D9602
:100450008C91928D9F5F9F73928F90E008958FEFA4
:100460009FEF0895FC01918D828D981731F0828D58
:10047000E80FF11D858D90E008958FEF9FEF0895AF
:10048000FC01918D228D892F90E0805C9F4F821B13
:1004900091098F73992708958AE491E00E944002A0
:1004A00021E0892B09F420E0822F089580E090E07C
:1004B000892B29F00E944C0281110C9400000895B0
:1004C000FC01A48DA80FB92FB11DA35ABF4F2C91C9
:1004D000848D90E001968F739927848FA689B789C0
:1004E0002C93A089B1898C91837080648C93938DB7
:1004F000848D981306C00288F389E02D80818F7D5A
:1005000080830895EF92FF920F931F93CF93DF9311
:10051000EC0181E0888F9B8D8C8D98131AC0E8893F
:10052000F989808185FF15C09FB7F894EE89FF890E
:100530006083E889F98980818370806480839FBFAC
:1005400081E090E0DF91CF911F910F91FF90EF90AC
:100550000895F62E0B8D10E00F5F1F4F0F731127BC
:10056000E02E8C8D8E110CC00FB607FCFACFE889F7
:10057000F989808185FFF5CFCE010E946002F1CF1D
:10058000EB8DEC0FFD2FF11DE35AFF4FF0829FB76B
:10059000F8940B8FEA89FB8980818062CFCFCF935B
:1005A000DF93EC01888D8823B9F0AA89BB89E8899B
:1005B000F9898C9185FD03C0808186FD0DC00FB641
:1005C00007FCF7CF8C9185FFF2CF808185FFEDCFBF
:1005D000CE010E946002E9CFDF91CF91089560E0E3
:1005E00089E00E941A0160E088E00E941A0160E040
:1005F00087E00E941A0160E086E00C941A01CF9314
:10060000C82F61E00E94480161E08C2FCF910C94CB
:100610001A018AE00E94FF0285E00E94FF0261E069
:1006200089E00E941A0160E088E00E941A0160E0FF
:1006300087E00E941A0161E086E00C941A018AE0CA
:100640000E94FF0285E00E94FF0260E089E00E94B4
:100650001A0161E088E00E941A0161E087E00E94CF
:100660001A0160E086E00C941A018AE00E94FF0201
:1006700085E00E94FF0261E089E00E941A0160E0CB
:1006800088E00E941A0161E087E00E941A0160E0A0
:1006900086E00C941A01FC0101900020E9F73197E3
:1006A000AF01481B590BBC018AE491E00C94E201B4
:1006B0008F929F92AF92BF920F931F93CF93DF932E
:1006C000CDB7DEB7A1970FB6F894DEBF0FBECDBF92
:1006D00019A2423008F44AE08E010F5D1F4F842EAC
:1006E000912CB12CA12CA50194010E947507E62F35
:1006F000B901CA01EA30F4F4E05DD801EE938D014E
:10070000232B242B252B79F790E080E0109719F00C
:10071000CD010E944B03A1960FB6F894DEBF0FBE29
:10072000CDBFDF91CF911F910F91BF90AF909F9060
:100730008F900895E95CE1CFCF92DF92EF92FF9224
:10074000CF93DF936B017C016DE28AE491E00E941C
:100750008202EC0166277727CB016C197D098E098F
:100760009F094AE00E9458038C0F9D1FDF91CF9193
:10077000FF90EF90DF90CF900895BC01990F880B08
:10078000990B97FD0C949C034AE00C9458031F921C
:100790000F920FB60F9211242F933F938F939F9335
:1007A000AF93BF938091420190914301A091440186
:1007B000B09145013091410123E0230F2D3758F5C9
:1007C0000196A11DB11D2093410180934201909398
:1007D0004301A0934401B09345018091460190915B
:1007E0004701A0914801B09149010196A11DB11D99
:1007F0008093460190934701A0934801B09349012B
:10080000BF91AF919F918F913F912F910F900FBE0C
:100810000F901F90189526E8230F0296A11DB11D79
:10082000D2CF1F920F920FB60F9211242F933F93A6
:100830004F935F936F937F938F939F93AF93BF93E8
:10084000EF93FF938AE491E00E946002FF91EF91A1
:10085000BF91AF919F918F917F916F915F914F91D8
:100860003F912F910F900FBE0F901F9018951F92E0
:100870000F920FB60F9211242F938F939F93EF93A4
:10088000FF93E0915A01F0915B018081E09160015A
:10089000F091610182FD1BC09081809163018F5FA7
:1008A0008F7320916401821741F0E0916301F0E0C1
:1008B000E65BFE4F958F80936301FF91EF919F91CF
:1008C0008F912F910F900FBE0F901F9018958081E0
:1008D000F4CF1F920F920FB60F9211242F933F93D4
:1008E0004F935F936F937F938F939F93AF93BF9338
:1008F000CF93DF93EF93FF9380914001C0910B0260
:10090000D0E087FF24C0109285001092840080916F
:1009100040018F5F8093400180914001082E000CC0
:10092000990B8C179D0724F4809140018C30C4F101
:100930008091840090918500049680349C4908F44D
:100940007AC08091840090918500049676C0809151
:100950004001082E000C990B8C179D07C4F6E091FE
:1009600040018E2FEE0F990BFC01EE0FFF1FE80FD9
:10097000F91FE951FE4F808186FFC9CFE091400108
:100980008E2FEE0F990BFC01EE0FFF1FE80FF91FE2
:10099000E951FE4F808160E08F730E941A01B7CF4A
:1009A0002091840030918500E09140018E2FEE0F60
:1009B000990BFC01EE0FFF1FE80FF91FE951FE4FE5
:1009C00081819281820F931F909389008093880088
:1009D000E09140018E2FEE0F990BFC01EE0FFF1FEF
:1009E000E80FF91FE951FE4F808186FF11C0E091A9
:1009F00040018E2FEE0F990BFC01EE0FFF1FE80F49
:100A0000F91FE951FE4F808161E08F730E941A0146
:100A1000FF91EF91DF91CF91BF91AF919F918F9116
:100A20007F916F915F914F913F912F910F900FBEEA
:100A30000F901F90189580E49CE990938900809313
:100A400088008FEF80934001E3CF10924D01109208
:100A50004C0188EE93E0A0E0B0E080934E019093CB
:100A60004F01A0935001B093510184E091E0909325
:100A70004B0180934A0185EC90E09093570180935D
:100A8000560184EC90E0909359018093580180ECDA
:100A900090E090935B0180935A0181EC90E09093F9
:100AA0005D0180935C0182EC90E090935F01809304
:100AB0005E0186EC90E0909361018093600110925A
:100AC0006301109264011092650110926601809199
:100AD0000B028C3098F491E0980F90930B02809366
:100AE0000C0290E0FC01EE0FFF1FE80FF91FE95127
:100AF000FE4F88EB9BE09283818308958FEF809374
:100B00000C020895789484B5826084BD84B58160B8
:100B100084BD85B5826085BD85B5816085BD8091C8
:100B20006E00816080936E00109281008091810040
:100B30008260809381008091810081608093810038
:100B4000809180008160809380008091B1008460FA
:100B50008093B1008091B00081608093B00080915B
:100B60007A00846080937A0080917A00826080931A
:100B70007A0080917A00816080937A0080917A0077
:100B8000806880937A001092C100E0915A01F09140
:100B90005B0182E08083E0915601F0915701108261
:100BA000E0915801F09159018FEC8083109262011D
:100BB000E0915E01F0915F0186E08083E0915C014D
:100BC000F0915D01808180618083E0915C01F09112
:100BD0005D01808188608083E0915C01F0915D011E
:100BE000808180688083E0915C01F0915D0180816B
:100BF0008F7D808360E08EE00E94480160E08FE09E
:100C00000E94480160E080E10E94480160E082E1CA
:100C10000E94480161E08CE00E94480161E089E0A7
:100C20000E94480161E088E00E94480161E087E09D
:100C30000E94480161E086E00E94480161E08AE08C
:100C40000E94480161E085E00E94480180910C0209
:100C50008C3008F051C061E083E00E94480180912F
:100C60000C02282F30E0F901EE0FFF1FE20FF31FF7
:100C7000E951FE4F9081907C9360908310920D0219
:100C800010920E022CE0622F0E94A607829FB001F4
:100C9000112430E020E0AB01420F531FFA01EE0FA8
:100CA000FF1FE40FF51FE951FE4F908196FD16C01E
:100CB0002F5F3F4F2C30310571F781110FC010921B
:100CC000800082E080938100109285001092840061
:100CD000B19A80916F00826080936F00E0910C0266
:100CE0008E2F90E0FC01EE0FFF1FE80FF91FE95176
:100CF000FE4F8081806480838AE590E00E948C00B2
:100D000090EC492E90E0592E2CEA622E20E0722EB3
:100D100038E9A32E30E0B32E40E0842E40E0942E3C
:100D20008EE00E9479017C018FE00E9479016C01C4
:100D300080E10E9479018C01F2018491F301C49158
:100D4000F501D491DD2309F452C081110E94F10014
:100D5000ED2FF0E0EE0FFF1FE859FF4FA591B49182
:100D60008C91C82391E080E009F490E0C92FD82F3E
:100D700082E191E00E944B03C7010E94BD038DE117
:100D800091E00E944B03C6010E94BD0389E291E0FD
:100D90000E944B03C8010E94BD0384E391E00E94BE
:100DA0004B034AE0BE010D2E000C880B990B0E94EC
:100DB00058038DE391E00E944B0362E370E080E012
:100DC00090E00E94B001FEE5CF16F1E0DF06B4F539
:100DD00061E08CE00E941A018AEFE816F10454F4F5
:100DE0008DE290E00E948C000E941F0315C0D0E0AD
:100DF000C0E0BECF87E890E00A3F11059CF18AE58C
:100E000090E00E948C00E2E3CE16D1041CF40E9414
:100E1000EF0202C00E9435036AE070E080E090E0DB
:100E20000E94B0018114910409F47ACF0E944C020F
:100E3000882309F475CF0E94000072CFFAEFEF16F5
:100E4000F1043CF461E08CE00E941A0190E080E043
:100E5000C9CF0A3F11055CF461E08CE00E941A01E1
:100E600084EB90E00E948C000E940903D5CF61E0E2
:100E7000219709F060E08CE00E941A018AE590E079
:100E80000E948C00C4CF052E97FB1EF400940E9494
:100E90005A0757FD07D00E94750707FC03D04EF490
:100EA0000C945A0750954095309521953F4F4F4FE0
:100EB0005F4F089590958095709561957F4F8F4F06
:100EC0009F4F08950E949707A59F900DB49F900D86
:100ED000A49F800D911D11240895B7FF0C94620703
:100EE0000E946207821B930B0895A1E21A2EAA1B8F
:100EF000BB1BFD010DC0AA1FBB1FEE1FFF1FA217CA
:100F0000B307E407F50720F0A21BB30BE40BF50BC6
:100F1000661F771F881F991F1A9469F7609570954F
:100F2000809590959B01AC01BD01CF010895A29FD2
:100F3000B001B39FC001A39F700D811D1124911DAD
:100F4000B29F700D811D1124911D0895991B79E0A8
:100F500004C0991F961708F0961B881F7A95C9F749
:100F600080950895EE0FFF1F0590F491E02D0994F0
:040F7000F894FFCF23
:100F7400000000008202E2010F02CF0240021E02C2
:100F8400320249522052696768743A200009495272
:100F94002046726F6E743A2000094952204C6566EF
:100FA400743A200009536D6F6B653A20000D0A00F6
:00000001FF
